:020000040000FA
:08000000803102288731FD2F39
:10001000013021009D00D0309E00080021000E110B
:10002000043020009C000C3025009300403020005C
:100030009B0008008330F200720821009D057008C3
:10004000F2000130F235FF3E031D22287235F30025
:1000500073089D040630F2003030890B2D28F20B16
:100060002D28003221009D149D1837283828342867
:100070001C08F1001B08F0000800F800F401F5016D
:100080007008F200F3017208F6007308F700781C9C
:100090004A284B284F287608F4077708F53D0130A9
:1000A000F635F70D890B50280310F80C7808031D5E
:1000B0005A285B2847287508F1007408F0000800EA
:1000C000031020005C0D5D0DDE005E08FD007D0864
:1000D000031D6B286C2875280030DD000030DC0023
:1000E0000030DB000030DA00D4285A08DE005B085C
:1000F000DF005C08E0005D08E1001F30E136E00C45
:10010000DF0CDE0C890B7E285E08E2006208FC0032
:10011000DC17FF30DA05FF30DB05FF30DC0500308F
:10012000DD059630FD02FD1F96289728AF287D0833
:10013000803A973E03189D289E289F286C280130FE
:10014000DD36DC0CDB0CDA0C890BA0280130DE007C
:100150005E08FD07031DAD28AE289F28C428203067
:100160007D02031CB428B528BF286C280130DA357D
:10017000DB0DDC0DDD0D890BB7280130FD027D089C
:10018000031DC328C428B6287C080319C828C92819
:10019000D428DA09DB09DC09DD09DA0A0319DB0AEC
:1001A0000319DC0A0319DD0A080000307005F800A5
:1001B00000307105F90080307205FA007F30730558
:1001C000FB007B087A0479047804031DE828E928F9
:1001D000F1280030F3000030F2000030F100003070
:1001E000F00000307405F80000307505F90080302B
:1001F0007605FA007F307705FB007B087A047904E6
:100200007804031D042905290D290030F70000306A
:10021000F6000030F5000030F400F31F102911291A
:1002200029290030F8000030F9000030FA00803051
:10023000FB007008F8027108F93B7208FA3B73087A
:10024000FB3B7B08F3007A08F2007908F10078089C
:10025000F000F71F2C292D2945290030F800003027
:10026000F9000030FA008030FB007408F8027508CD
:10027000F93B7608FA3B7708FB3B7B08F7007A08E6
:10028000F6007908F5007808F4008030F306803035
:10029000F70677087302031D572976087202031DBB
:1002A000572975087102031D572974087002031835
:1002B0005A295B295D2903105E29031408000330C5
:1002C00020006402FF3003196302031868296929BA
:1002D000FE296308F4006408F500F601F701003018
:1002E0008131FF21813177082000AD007608AC0014
:1002F0007508AB007408AA004430A9007F30A8003C
:10030000C030A7000030A6008331F22381312000E5
:100310002908C7002808C6002708C5002608C40009
:100320004030C3008030C2000030C1000030C00047
:100330008531A625813120004308EA004208E90002
:100340004108E8004008E7006A08C7006908C600DD
:100350006808C5006708C4001B08013EF4000030AF
:1003600003180130F500F601F51BF6037608F700D7
:1003700001308131FF21813177082000C3007608E8
:10038000C2007508C1007408C0008531A6258131FE
:1003900020004308DD004208DC004108DB00400883
:1003A000DA0080316020813120005B08E4005A08C7
:1003B000E3006408E6006308E500E636E50CE6368F
:1003C000E50C65082500910020006408E60063083C
:1003D000E500E636E50C6518EE29F12925009316AF
:1003E000F3292500931220006318F729FA29250024
:1003F0001316FC292500131221000E1108002000FD
:10040000A00020080319052A062A1A2AF71F092A1C
:100410000A2A1A2A7409A2007509A3007609A40001
:100420007709A500A20A0319A30A0319A40A03194C
:10043000A50A222A7708A5007608A4007508A3005B
:100440007408A2007708760475047404031D292A31
:100450002A2A332A0030F7000030F6000030F50079
:100460000030F400AB2A9630F8007808A100432A47
:100470000130F8007808A1070130A536A40CA30CC0
:10048000A20C890B3D2AFE302505031D482A492A66
:10049000382A5D2A0130F8007808A1070130A20748
:1004A0000030A33D0030A43D0030A53D0130A5360D
:1004B000A40CA30CA20C890B572AFF302505031DA1
:1004C000622A632A4A2A6D2A0130A1020130A2352C
:1004D000A30DA40DA50D890B672AA41B702A712AF0
:1004E000772A023021020318762A772A642A2118F3
:1004F0007A2A7B2A832AFF30A205FF30A3057F30AA
:10050000A405FF30A5050310A10C2108F800F9018E
:10051000FA01FB011830F835F90DFA0DFB0D890BC6
:100520008B2A7808A2047908A3047A08A4047B081B
:10053000A504200803199D2A9E2AA32AF71FA12A91
:10054000A22AA32AA5172508F7002408F6002308E5
:10055000F5002208F400080000302100A30000305C
:10056000A2000030A1000030A0000030A700003041
:10057000A6000030A5000030A4000030C500003007
:10058000C4000030C3000030C2000030AB000030B7
:10059000AA000030A9000030A8000030AF000030F1
:1005A000AE000030AD000030AC000030B3000030D1
:1005B000B2000030B1000030B0000030B7000030B1
:1005C000B6000030B5000030B4000030BB00003091
:1005D000BA000030B9000030B8000030BC00023072
:1005E000BD0023000C1421000C1423008C142100E6
:1005F0008C1423000E118F0121008F01703099009F
:1006000080310E208231803108208231423020003A
:10061000C3004830C2000030C1000030C000443088
:10062000A9007F30A800C030A7000030A60000302D
:10063000F000F10080311A20823170082000EB00B8
:100640007108EC00ED01EE016E08F7006D08F60090
:100650006C08F5006B08F40000308131FF21823115
:1006600077082000AD007608AC007508AB00740870
:10067000AA008331F223823120002908C70028080C
:10068000C6002708C5002608C4008531A62582318A
:10069000200043082100C100200042082100C000C2
:1006A000200041082100BF00200040082100BE00BA
:1006B00042302000C3004830C2000030C10000308A
:1006C000C0004430A9007F30A800C030A70000302F
:1006D000A6000130F0000030F10080311A20823194
:1006E00070082000EB007108EC00ED01EE016E08CF
:1006F000F7006D08F6006C08F5006B08F400003098
:100700008131FF21823177082000AD007608AC00EE
:100710007508AB007408AA008331F22382312000EF
:100720002908C7002808C6002708C5002608C400F5
:100730008531A6258231200043082100C500200014
:1007400042082100C400200041082100C30020000D
:1007500040082100C2004108F3004008F2003F08B1
:10076000F1003E08F0004508F7004408F600430891
:10077000F5004208F4008031D52082310318C12BE6
:10078000C22BC72B05302100BC070030BD3D210026
:100790004508F3004408F2004308F1004208F00065
:1007A0004108F7004008F6003F08F5003E08F40055
:1007B0008031D52082310318DE2BDF2BE42B05306E
:1007C0002100BC020030BD3B21003D082000E400B8
:1007D00021003C082000E30081315F218231062B9B
:1007E0008031022820002D088039AE002E08B70085
:1007F0002D35AE002E08BE00AC1FFF2B002C012CA7
:100800003E143E080319052C062C162C3E0A031D27
:100810000A2C0B2C132C0030AD000030AC00003043
:10082000AB000030AA00AC17AD011E2C0030AD00AB
:100830000030AC000030AB000030AA00290880393D
:10084000AE002E08B7062935AE002E08BF00A81F3F
:100850002A2C2B2C2C2C3F143F080319302C312C24
:10086000412C3F0A031D352C362C3E2C0030A900AC
:100870000030A8000030A7000030A600A817A9018A
:10088000492C0030A9000030A8000030A70000303B
:10089000A6002908280427042604031D502C512CE7
:1008A0006A2C0030AD000030AC000030AB000030EE
:1008B000AA008030AC047F30AD043708AE002E08AB
:1008C000AD042D08A9002C08A8002B08A7002A08B1
:1008D000A600A52D3E08031D6E2C6F2C782C003031
:1008E000A9000030A8000030A7000030A600A52D08
:1008F0003E08AE00AF012F08B1003F082E02B00045
:10090000031CB10330087F3EB8000030313DB90010
:100910002D08B6002C08B5002B08B4002A08B30037
:100920000030AD000030AC000030AB000030AA0059
:100930000030BD000030BC000030BB000030BA0009
:10094000BF01E02C3F080319A62CA72CC12C0130B5
:10095000B335B40DB50DB60D890BA82C0130AA35F1
:10096000AB0DAC0DAD0D890BAF2CBD1FB82CB92C48
:10097000BA2C2A140130BA35BB0DBC0DBD0D890B44
:10098000BB2C29083602031DCF2C28083502031D75
:10099000CF2C27083402031DCF2C26083302031C5A
:1009A000D22CD32CDC2C3D172608B3022708B43BED
:1009B0002808B53B2908B63B0130AE002E08BF071A
:1009C0001A303F02031CE52CE62CA22C3608350415
:1009D000340433040319ED2CEE2C072D3A14072DA3
:1009E0000130AA35AB0DAC0DAD0D890BF12CBD1F3F
:1009F000FA2CFB2CFC2C2A140130BA35BB0DBC0D93
:100A0000BD0D890BFD2CFF30B807FF30B93DAC1F81
:100A10000A2D0B2DF02CBF01BD1F0F2D102D2C2DDD
:100A2000FF303A05AE00FF303B05AF00FF303C051C
:100A3000B0007F303D05B100310830042F042E0492
:100A40000319232D242D272DBF01BF0A2C2D2A1C6D
:100A50002A2D2B2D2C2D242D3F080319302D312D1F
:100A6000592D0130AA070030AB3D0030AC3D0030BD
:100A7000AD3D2D1C3C2D3D2D592D2A08AE002B08D7
:100A8000AF002C08B0002D08B1000130B200B13722
:100A9000B00CAF0CAE0CB20B472D3108AD003008D6
:100AA000AC002F08AB002E08AA000130B8070030B8
:100AB000B93D3908803AAE0080302E02031D622D08
:100AC000FF303802031C652D662D732DFF3020008A
:100AD000B8000030B9000030AD000030AC0000308C
:100AE000AB000030AA0020003908803AAE00803008
:100AF0002E02031D7D2D013038020318802D812D1B
:100B00008D2D2000B801B9010030AD000030AC00DF
:100B10000030AB000030AA00B70120003808AE005A
:100B20002E08BE003E1C952D962D982DAC179C2DA1
:100B30007F30AE002E08AC053E36AE002E08AD006C
:100B40003708AE002E08AD04612C080020004308D1
:100B50008039C8004808CD004335C8004808D30094
:100B6000C21FB32DB42DB52D531453080319B92D3D
:100B7000BA2DC92D530A031DBE2DBF2DC72D003020
:100B8000C3000030C2000030C1000030C000C217F6
:100B9000D12D0030C3000030C2000030C100003051
:100BA000C00047088039C8004808CD064735C8004E
:100BB0004808D200C61FDD2DDE2DDF2D521452084D
:100BC0000319E32DE42DF32D520A031DE82DE92D21
:100BD000F12D0030C7000030C6000030C5000030E5
:100BE000C400C617FB2D0030C7000030C60000301F
:100BF000C5000030C40052080319FF2D002E052E39
:100C00005308031D042E052E0E2E0030C3000030A5
:100C1000C2000030C1000030C000FC2F4008C800F6
:100C20004808F000460880313D20853171082000D9
:100C3000D9007008D8005808C800C901CA01CB0102
:100C40004B08D1004A08D0004908CF004808CE0020
:100C50005908C800C901CA01CB014B08D7004A088E
:100C6000D6004908D5004808D4004108C800480803
:100C7000F000450880313D20853171082000D90001
:100C80007008D8005808C800C901CA01CB0148083B
:100C9000CE074908CF3D4A08D03D4B08D13D590801
:100CA000C800C901CA01CB014808D4074908D53D8D
:100CB0004A08D63D4B08D73D4208C8004808F00016
:100CC000440880313D20853171082000D90070082A
:100CD000D8005808C800C901CA01CB014808CE078E
:100CE0004908CF3D4A08D03D4B08D13D5908C800BE
:100CF000C901CA01CB014808D4074908D53D4A08B3
:100D0000D63D4B08D73D0830CE35CF0DD00DD10D97
:100D1000890B842E4108C8004808F000440880313F
:100D20003D20853171082000D9007008D80058088E
:100D3000CE075908CF3D0030D03DD13D4008C80016
:100D40004808F000450880313D20853171082000B9
:100D5000D9007008D8005808CE075908CF3D003098
:100D6000D03DD13D0830CE35CF0DD00DD10D890B02
:100D7000B32E4008C8004808F000440880313D20E8
:100D8000853171082000D9007008D8005808CE07B6
:100D90005908CF3D0030D03DD13D4108C80048083A
:100DA000F000460880313D20853171082000D900CF
:100DB0007008D8005808D4075908D53D0030D63DF2
:100DC000D73D4208C8004808F000450880313D2062
:100DD000853171082000D9007008D8005808D40760
:100DE0005908D53D0030D63DD73D4208C8004808D7
:100DF000F000460880313D20853171082000D9007F
:100E00007008D8005808C8005908C900CA01CB01A9
:100E10000830C835C90DCA0DCB0D890B092F4808FC
:100E2000D4074908D53D4A08D63D4B08D73D4E0862
:100E3000C8004F08C9005008CA005108CB0018303C
:100E4000CB36CA0CC90CC80C890B202F4808D40714
:100E50004908D53D4A08D63D4B08D73D0830CE3528
:100E6000CF0DD00DD10D890B2F2F53085207C8007D
:100E7000C901C90D4808823ED800FF30493DD9005C
:100E8000582F0130D435D50DD60DD70D890B422FF3
:100E9000D11F4B2F4C2F4D2F54140130CE35CF0D79
:100EA000D00DD10D890B4E2FFF30D807FF30D93D23
:100EB000D61F5B2F5C2F412FD201D11F602F612FD6
:100EC0007D2FFF304E05C800FF304F05C900FF30B1
:100ED0005005CA007F305105CB004B084A04490435
:100EE00048040319742F752F782FD201D20A7D2F51
:100EF000541C7B2F7C2F7D2F752F52080319812FB7
:100F0000822FAA2F0130D4070030D53D0030D63DC6
:100F10000030D73D571C8D2F8E2FAA2F5408C800A4
:100F20005508C9005608CA005708CB000130CC004C
:100F3000CB37CA0CC90CC80CCC0B982F4B08D70068
:100F40004A08D6004908D5004808D4000130D8071F
:100F50000030D93D5908803AC80080304802031D4E
:100F6000B32FFF305802031CB62FB72FC12F7F308D
:100F70002000D7008030D6000030D5000030D400EB
:100F8000F02F20005908803AC80080304802031D25
:100F9000CB2F013058020318CE2FCF2FDA2F00307D
:100FA0002000D7000030D6000030D5000030D4003B
:100FB000CD01F02F20005808C8004808D300FF30AA
:100FC000D405FF30D5057F30D6050030D705531C3A
:100FD000EA2FEB2FEC2FD6175336C8004808D7005E
:100FE0004D08C8004808D7045708C3005608C20077
:100FF0005508C1005408C000080020008231AC2A06
:020000040001F9
:04000E00E23FFF1FAF
:00000001FF
